{
  "_format": "hh-sol-artifact-1",
  "contractName": "ExpenseTracker",
  "sourceName": "contracts/ExpenseTracker.sol",
  "abi": [
    {
      "anonymous": false,
      "inputs": [
        {
          "indexed": true,
          "internalType": "address",
          "name": "user",
          "type": "address"
        },
        {
          "indexed": true,
          "internalType": "uint256",
          "name": "expenseId",
          "type": "uint256"
        },
        {
          "indexed": false,
          "internalType": "string",
          "name": "description",
          "type": "string"
        },
        {
          "indexed": false,
          "internalType": "uint256",
          "name": "amount",
          "type": "uint256"
        },
        {
          "indexed": false,
          "internalType": "uint256",
          "name": "timestamp",
          "type": "uint256"
        },
        {
          "indexed": false,
          "internalType": "string",
          "name": "category",
          "type": "string"
        }
      ],
      "name": "ExpenseAdded",
      "type": "event"
    },
    {
      "inputs": [
        {
          "internalType": "string",
          "name": "_description",
          "type": "string"
        },
        {
          "internalType": "uint256",
          "name": "_amount",
          "type": "uint256"
        },
        {
          "internalType": "string",
          "name": "_category",
          "type": "string"
        }
      ],
      "name": "addExpense",
      "outputs": [],
      "stateMutability": "nonpayable",
      "type": "function"
    },
    {
      "inputs": [],
      "name": "getExpenses",
      "outputs": [
        {
          "components": [
            {
              "internalType": "uint256",
              "name": "id",
              "type": "uint256"
            },
            {
              "internalType": "string",
              "name": "description",
              "type": "string"
            },
            {
              "internalType": "uint256",
              "name": "amount",
              "type": "uint256"
            },
            {
              "internalType": "uint256",
              "name": "timestamp",
              "type": "uint256"
            },
            {
              "internalType": "string",
              "name": "category",
              "type": "string"
            }
          ],
          "internalType": "struct ExpenseTracker.Expense[]",
          "name": "",
          "type": "tuple[]"
        }
      ],
      "stateMutability": "view",
      "type": "function"
    },
    {
      "inputs": [
        {
          "internalType": "uint256",
          "name": "_startDate",
          "type": "uint256"
        },
        {
          "internalType": "uint256",
          "name": "_endDate",
          "type": "uint256"
        }
      ],
      "name": "getExpensesByDateRange",
      "outputs": [
        {
          "components": [
            {
              "internalType": "uint256",
              "name": "id",
              "type": "uint256"
            },
            {
              "internalType": "string",
              "name": "description",
              "type": "string"
            },
            {
              "internalType": "uint256",
              "name": "amount",
              "type": "uint256"
            },
            {
              "internalType": "uint256",
              "name": "timestamp",
              "type": "uint256"
            },
            {
              "internalType": "string",
              "name": "category",
              "type": "string"
            }
          ],
          "internalType": "struct ExpenseTracker.Expense[]",
          "name": "",
          "type": "tuple[]"
        }
      ],
      "stateMutability": "view",
      "type": "function"
    }
  ],
  "bytecode": "0x608060405234801561001057600080fd5b506110c2806100206000396000f3fe608060405234801561001057600080fd5b50600436106100415760003560e01c8063106caaa11461004657806383a36a9114610062578063c408c11314610080575b600080fd5b610060600480360381019061005b91906109a2565b6100b0565b005b61006a61028a565b6040516100779190610bfa565b60405180910390f35b61009a60048036038101906100959190610c1c565b610467565b6040516100a79190610bfa565b60405180910390f35b6000600160003373ffffffffffffffffffffffffffffffffffffffff1673ffffffffffffffffffffffffffffffffffffffff168152602001908152602001600020549050600042905060006040518060a001604052808481526020018781526020018681526020018381526020018581525090506000803373ffffffffffffffffffffffffffffffffffffffff1673ffffffffffffffffffffffffffffffffffffffff1681526020019081526020016000208190806001815401808255809150506001900390600052602060002090600502016000909190919091506000820151816000015560208201518160010190816101ab9190610e68565b50604082015181600201556060820151816003015560808201518160040190816101d59190610e68565b505050600160003373ffffffffffffffffffffffffffffffffffffffff1673ffffffffffffffffffffffffffffffffffffffff168152602001908152602001600020600081548092919061022890610f69565b9190505550823373ffffffffffffffffffffffffffffffffffffffff167f0938d9725548ba0363ba832a2ca71f601ac0bfdc2d6f7a77910131e8e7868d628888868960405161027a949392919061100a565b60405180910390a3505050505050565b60606000803373ffffffffffffffffffffffffffffffffffffffff1673ffffffffffffffffffffffffffffffffffffffff168152602001908152602001600020805480602002602001604051908101604052809291908181526020016000905b8282101561045e57838290600052602060002090600502016040518060a00160405290816000820154815260200160018201805461032790610c8b565b80601f016020809104026020016040519081016040528092919081815260200182805461035390610c8b565b80156103a05780601f10610375576101008083540402835291602001916103a0565b820191906000526020600020905b81548152906001019060200180831161038357829003601f168201915b5050505050815260200160028201548152602001600382015481526020016004820180546103cd90610c8b565b80601f01602080910402602001604051908101604052809291908181526020018280546103f990610c8b565b80156104465780601f1061041b57610100808354040283529160200191610446565b820191906000526020600020905b81548152906001019060200180831161042957829003601f168201915b505050505081525050815260200190600101906102ea565b50505050905090565b606060008060003373ffffffffffffffffffffffffffffffffffffffff1673ffffffffffffffffffffffffffffffffffffffff168152602001908152602001600020805480602002602001604051908101604052809291908181526020016000905b8282101561063d57838290600052602060002090600502016040518060a00160405290816000820154815260200160018201805461050690610c8b565b80601f016020809104026020016040519081016040528092919081815260200182805461053290610c8b565b801561057f5780601f106105545761010080835404028352916020019161057f565b820191906000526020600020905b81548152906001019060200180831161056257829003601f168201915b5050505050815260200160028201548152602001600382015481526020016004820180546105ac90610c8b565b80601f01602080910402602001604051908101604052809291908181526020018280546105d890610c8b565b80156106255780601f106105fa57610100808354040283529160200191610625565b820191906000526020600020905b81548152906001019060200180831161060857829003601f168201915b505050505081525050815260200190600101906104c9565b5050505090506000805b82518110156106c357858382815181106106645761066361105d565b5b6020026020010151606001511015801561069c57508483828151811061068d5761068c61105d565b5b60200260200101516060015111155b156106b05781806106ac90610f69565b9250505b80806106bb90610f69565b915050610647565b5060008167ffffffffffffffff8111156106e0576106df610841565b5b60405190808252806020026020018201604052801561071957816020015b6107066107e3565b8152602001906001900390816106fe5790505b5090506000805b84518110156107d5578785828151811061073d5761073c61105d565b5b602002602001015160600151101580156107755750868582815181106107665761076561105d565b5b60200260200101516060015111155b156107c25784818151811061078d5761078c61105d565b5b60200260200101518383815181106107a8576107a761105d565b5b602002602001018190525081806107be90610f69565b9250505b80806107cd90610f69565b915050610720565b508194505050505092915050565b6040518060a0016040528060008152602001606081526020016000815260200160008152602001606081525090565b6000604051905090565b600080fd5b600080fd5b600080fd5b600080fd5b6000601f19601f8301169050919050565b7f4e487b7100000000000000000000000000000000000000000000000000000000600052604160045260246000fd5b61087982610830565b810181811067ffffffffffffffff8211171561089857610897610841565b5b80604052505050565b60006108ab610812565b90506108b78282610870565b919050565b600067ffffffffffffffff8211156108d7576108d6610841565b5b6108e082610830565b9050602081019050919050565b82818337600083830152505050565b600061090f61090a846108bc565b6108a1565b90508281526020810184848401111561092b5761092a61082b565b5b6109368482856108ed565b509392505050565b600082601f83011261095357610952610826565b5b81356109638482602086016108fc565b91505092915050565b6000819050919050565b61097f8161096c565b811461098a57600080fd5b50565b60008135905061099c81610976565b92915050565b6000806000606084860312156109bb576109ba61081c565b5b600084013567ffffffffffffffff8111156109d9576109d8610821565b5b6109e58682870161093e565b93505060206109f68682870161098d565b925050604084013567ffffffffffffffff811115610a1757610a16610821565b5b610a238682870161093e565b9150509250925092565b600081519050919050565b600082825260208201905092915050565b6000819050602082019050919050565b610a628161096c565b82525050565b600081519050919050565b600082825260208201905092915050565b60005b83811015610aa2578082015181840152602081019050610a87565b60008484015250505050565b6000610ab982610a68565b610ac38185610a73565b9350610ad3818560208601610a84565b610adc81610830565b840191505092915050565b600060a083016000830151610aff6000860182610a59565b5060208301518482036020860152610b178282610aae565b9150506040830151610b2c6040860182610a59565b506060830151610b3f6060860182610a59565b5060808301518482036080860152610b578282610aae565b9150508091505092915050565b6000610b708383610ae7565b905092915050565b6000602082019050919050565b6000610b9082610a2d565b610b9a8185610a38565b935083602082028501610bac85610a49565b8060005b85811015610be85784840389528151610bc98582610b64565b9450610bd483610b78565b925060208a01995050600181019050610bb0565b50829750879550505050505092915050565b60006020820190508181036000830152610c148184610b85565b905092915050565b60008060408385031215610c3357610c3261081c565b5b6000610c418582860161098d565b9250506020610c528582860161098d565b9150509250929050565b7f4e487b7100000000000000000000000000000000000000000000000000000000600052602260045260246000fd5b60006002820490506001821680610ca357607f821691505b602082108103610cb657610cb5610c5c565b5b50919050565b60008190508160005260206000209050919050565b60006020601f8301049050919050565b600082821b905092915050565b600060088302610d1e7fffffffffffffffffffffffffffffffffffffffffffffffffffffffffffffffff82610ce1565b610d288683610ce1565b95508019841693508086168417925050509392505050565b6000819050919050565b6000610d65610d60610d5b8461096c565b610d40565b61096c565b9050919050565b6000819050919050565b610d7f83610d4a565b610d93610d8b82610d6c565b848454610cee565b825550505050565b600090565b610da8610d9b565b610db3818484610d76565b505050565b5b81811015610dd757610dcc600082610da0565b600181019050610db9565b5050565b601f821115610e1c57610ded81610cbc565b610df684610cd1565b81016020851015610e05578190505b610e19610e1185610cd1565b830182610db8565b50505b505050565b600082821c905092915050565b6000610e3f60001984600802610e21565b1980831691505092915050565b6000610e588383610e2e565b9150826002028217905092915050565b610e7182610a68565b67ffffffffffffffff811115610e8a57610e89610841565b5b610e948254610c8b565b610e9f828285610ddb565b600060209050601f831160018114610ed25760008415610ec0578287015190505b610eca8582610e4c565b865550610f32565b601f198416610ee086610cbc565b60005b82811015610f0857848901518255600182019150602085019450602081019050610ee3565b86831015610f255784890151610f21601f891682610e2e565b8355505b6001600288020188555050505b505050505050565b7f4e487b7100000000000000000000000000000000000000000000000000000000600052601160045260246000fd5b6000610f748261096c565b91507fffffffffffffffffffffffffffffffffffffffffffffffffffffffffffffffff8203610fa657610fa5610f3a565b5b600182019050919050565b600082825260208201905092915050565b6000610fcd82610a68565b610fd78185610fb1565b9350610fe7818560208601610a84565b610ff081610830565b840191505092915050565b6110048161096c565b82525050565b600060808201905081810360008301526110248187610fc2565b90506110336020830186610ffb565b6110406040830185610ffb565b81810360608301526110528184610fc2565b905095945050505050565b7f4e487b7100000000000000000000000000000000000000000000000000000000600052603260045260246000fdfea2646970667358221220ed5fb4574ed68790f9d0b171f294040869c6f7a773a7008914579b443671cefe64736f6c63430008130033",
  "linkReferences": {},
  "deployedLinkReferences": {}
}